{
  "contractName": "MyTokenManage",
  "abi": [
    {
      "constant": false,
      "inputs": [],
      "name": "unpause",
      "outputs": [],
      "payable": false,
      "stateMutability": "nonpayable",
      "type": "function"
    },
    {
      "constant": true,
      "inputs": [
        {
          "name": "account",
          "type": "address"
        }
      ],
      "name": "isPauser",
      "outputs": [
        {
          "name": "",
          "type": "bool"
        }
      ],
      "payable": false,
      "stateMutability": "view",
      "type": "function"
    },
    {
      "constant": true,
      "inputs": [],
      "name": "paused",
      "outputs": [
        {
          "name": "",
          "type": "bool"
        }
      ],
      "payable": false,
      "stateMutability": "view",
      "type": "function"
    },
    {
      "constant": false,
      "inputs": [],
      "name": "renouncePauser",
      "outputs": [],
      "payable": false,
      "stateMutability": "nonpayable",
      "type": "function"
    },
    {
      "constant": false,
      "inputs": [],
      "name": "renounceOwnership",
      "outputs": [],
      "payable": false,
      "stateMutability": "nonpayable",
      "type": "function"
    },
    {
      "constant": false,
      "inputs": [
        {
          "name": "account",
          "type": "address"
        }
      ],
      "name": "addPauser",
      "outputs": [],
      "payable": false,
      "stateMutability": "nonpayable",
      "type": "function"
    },
    {
      "constant": false,
      "inputs": [],
      "name": "pause",
      "outputs": [],
      "payable": false,
      "stateMutability": "nonpayable",
      "type": "function"
    },
    {
      "constant": true,
      "inputs": [
        {
          "name": "",
          "type": "uint8"
        }
      ],
      "name": "tokens",
      "outputs": [
        {
          "name": "tokenContract",
          "type": "address"
        },
        {
          "name": "symbolName",
          "type": "string"
        }
      ],
      "payable": false,
      "stateMutability": "view",
      "type": "function"
    },
    {
      "constant": true,
      "inputs": [],
      "name": "owner",
      "outputs": [
        {
          "name": "",
          "type": "address"
        }
      ],
      "payable": false,
      "stateMutability": "view",
      "type": "function"
    },
    {
      "constant": true,
      "inputs": [],
      "name": "isOwner",
      "outputs": [
        {
          "name": "",
          "type": "bool"
        }
      ],
      "payable": false,
      "stateMutability": "view",
      "type": "function"
    },
    {
      "constant": false,
      "inputs": [
        {
          "name": "newOwner",
          "type": "address"
        }
      ],
      "name": "transferOwnership",
      "outputs": [],
      "payable": false,
      "stateMutability": "nonpayable",
      "type": "function"
    },
    {
      "anonymous": false,
      "inputs": [
        {
          "indexed": false,
          "name": "_from",
          "type": "address"
        },
        {
          "indexed": false,
          "name": "_symbolIndex",
          "type": "uint8"
        },
        {
          "indexed": false,
          "name": "_amount",
          "type": "uint256"
        },
        {
          "indexed": false,
          "name": "_timestamp",
          "type": "uint256"
        }
      ],
      "name": "log_DepositToken",
      "type": "event"
    },
    {
      "anonymous": false,
      "inputs": [
        {
          "indexed": false,
          "name": "_to",
          "type": "address"
        },
        {
          "indexed": false,
          "name": "_symbolIndex",
          "type": "uint8"
        },
        {
          "indexed": false,
          "name": "_amount",
          "type": "uint256"
        },
        {
          "indexed": false,
          "name": "_timestamp",
          "type": "uint256"
        }
      ],
      "name": "log_WithDrawToken",
      "type": "event"
    },
    {
      "anonymous": false,
      "inputs": [
        {
          "indexed": false,
          "name": "_from",
          "type": "address"
        },
        {
          "indexed": false,
          "name": "_amount",
          "type": "uint256"
        },
        {
          "indexed": false,
          "name": "_timestamp",
          "type": "uint256"
        }
      ],
      "name": "log_DepositEther",
      "type": "event"
    },
    {
      "anonymous": false,
      "inputs": [
        {
          "indexed": false,
          "name": "_to",
          "type": "address"
        },
        {
          "indexed": false,
          "name": "_amount",
          "type": "uint256"
        },
        {
          "indexed": false,
          "name": "_timestamp",
          "type": "uint256"
        }
      ],
      "name": "log_WithDrawEther",
      "type": "event"
    },
    {
      "anonymous": false,
      "inputs": [
        {
          "indexed": false,
          "name": "_symbolIndex",
          "type": "uint8"
        },
        {
          "indexed": false,
          "name": "_tokenName",
          "type": "string"
        },
        {
          "indexed": false,
          "name": "_timestamp",
          "type": "uint256"
        }
      ],
      "name": "log_NewToken",
      "type": "event"
    },
    {
      "anonymous": false,
      "inputs": [
        {
          "indexed": false,
          "name": "_symbolName",
          "type": "string"
        },
        {
          "indexed": false,
          "name": "_symbolIndex",
          "type": "uint8"
        },
        {
          "indexed": false,
          "name": "_from",
          "type": "address"
        },
        {
          "indexed": false,
          "name": "_amount",
          "type": "uint256"
        }
      ],
      "name": "log_TokenBalance",
      "type": "event"
    },
    {
      "anonymous": false,
      "inputs": [
        {
          "indexed": true,
          "name": "previousOwner",
          "type": "address"
        },
        {
          "indexed": true,
          "name": "newOwner",
          "type": "address"
        }
      ],
      "name": "OwnershipTransferred",
      "type": "event"
    },
    {
      "anonymous": false,
      "inputs": [
        {
          "indexed": false,
          "name": "account",
          "type": "address"
        }
      ],
      "name": "Paused",
      "type": "event"
    },
    {
      "anonymous": false,
      "inputs": [
        {
          "indexed": false,
          "name": "account",
          "type": "address"
        }
      ],
      "name": "Unpaused",
      "type": "event"
    },
    {
      "anonymous": false,
      "inputs": [
        {
          "indexed": true,
          "name": "account",
          "type": "address"
        }
      ],
      "name": "PauserAdded",
      "type": "event"
    },
    {
      "anonymous": false,
      "inputs": [
        {
          "indexed": true,
          "name": "account",
          "type": "address"
        }
      ],
      "name": "PauserRemoved",
      "type": "event"
    },
    {
      "constant": false,
      "inputs": [],
      "name": "depositEther",
      "outputs": [],
      "payable": true,
      "stateMutability": "payable",
      "type": "function"
    },
    {
      "constant": false,
      "inputs": [
        {
          "name": "amountInWei",
          "type": "uint256"
        }
      ],
      "name": "withdrawEther",
      "outputs": [],
      "payable": false,
      "stateMutability": "nonpayable",
      "type": "function"
    },
    {
      "constant": true,
      "inputs": [],
      "name": "getEtherBalance",
      "outputs": [
        {
          "name": "",
          "type": "uint256"
        }
      ],
      "payable": false,
      "stateMutability": "view",
      "type": "function"
    },
    {
      "constant": true,
      "inputs": [],
      "name": "getEthBalanceInWei",
      "outputs": [
        {
          "name": "",
          "type": "uint256"
        }
      ],
      "payable": false,
      "stateMutability": "view",
      "type": "function"
    },
    {
      "constant": false,
      "inputs": [
        {
          "name": "symbolName",
          "type": "string"
        },
        {
          "name": "erc20Token",
          "type": "address"
        }
      ],
      "name": "addToken",
      "outputs": [],
      "payable": false,
      "stateMutability": "nonpayable",
      "type": "function"
    },
    {
      "constant": true,
      "inputs": [
        {
          "name": "symbolName",
          "type": "string"
        }
      ],
      "name": "hasToken",
      "outputs": [
        {
          "name": "",
          "type": "bool"
        }
      ],
      "payable": false,
      "stateMutability": "view",
      "type": "function"
    },
    {
      "constant": true,
      "inputs": [
        {
          "name": "symbolName",
          "type": "string"
        }
      ],
      "name": "getSymbolIndex",
      "outputs": [
        {
          "name": "",
          "type": "uint8"
        }
      ],
      "payable": false,
      "stateMutability": "view",
      "type": "function"
    },
    {
      "constant": false,
      "inputs": [
        {
          "name": "symbolName",
          "type": "string"
        },
        {
          "name": "amount",
          "type": "uint256"
        }
      ],
      "name": "depositToken",
      "outputs": [],
      "payable": false,
      "stateMutability": "nonpayable",
      "type": "function"
    },
    {
      "constant": false,
      "inputs": [
        {
          "name": "symbolName",
          "type": "string"
        },
        {
          "name": "amount",
          "type": "uint256"
        }
      ],
      "name": "withdrawToken",
      "outputs": [],
      "payable": false,
      "stateMutability": "nonpayable",
      "type": "function"
    },
    {
      "constant": true,
      "inputs": [
        {
          "name": "symbolName",
          "type": "string"
        }
      ],
      "name": "getBalance",
      "outputs": [
        {
          "name": "",
          "type": "uint256"
        }
      ],
      "payable": false,
      "stateMutability": "view",
      "type": "function"
    }
  ],
  "bytecode": "0x60806040526001600081905550620000263362000105640100000000026401000000009004565b6000600260006101000a81548160ff02191690831515021790555033600260016101000a81548173ffffffffffffffffffffffffffffffffffffffff021916908373ffffffffffffffffffffffffffffffffffffffff160217905550600260019054906101000a900473ffffffffffffffffffffffffffffffffffffffff1673ffffffffffffffffffffffffffffffffffffffff16600073ffffffffffffffffffffffffffffffffffffffff167f8be0079c531659141344cd1fd0a4f28419497f9722a3daafe3b4186f6b6457e060405160405180910390a3620002c7565b620001298160016200016f6401000000000262001f63179091906401000000009004565b8073ffffffffffffffffffffffffffffffffffffffff167f6719d08c1888103bea251a4ed56406bd0c3e69723c8a1686e017e7bbe159b6f860405160405180910390a250565b600073ffffffffffffffffffffffffffffffffffffffff168173ffffffffffffffffffffffffffffffffffffffff1614151515620001ac57600080fd5b620001c7828262000232640100000000026401000000009004565b151515620001d457600080fd5b60018260000160008373ffffffffffffffffffffffffffffffffffffffff1673ffffffffffffffffffffffffffffffffffffffff16815260200190815260200160002060006101000a81548160ff0219169083151502179055505050565b60008073ffffffffffffffffffffffffffffffffffffffff168273ffffffffffffffffffffffffffffffffffffffff16141515156200027057600080fd5b8260000160008373ffffffffffffffffffffffffffffffffffffffff1673ffffffffffffffffffffffffffffffffffffffff16815260200190815260200160002060009054906101000a900460ff16905092915050565b6120e480620002d76000396000f30060806040526004361061011d576000357c0100000000000000000000000000000000000000000000000000000000900463ffffffff1680631a8eb72b1461012257806333ad57e41461014d5780633a51d246146101c05780633bed33ce1461023d5780633f4ba83a1461026a57806346fbf68e146102815780635c975abb146102dc57806367fee8b41461030b5780636ef8d66d1461038e578063715018a6146103a557806382dc1ec4146103bc5780638456cb59146103ff5780638856c0d6146104165780638da5cb5b146104f25780638ea00818146105495780638f32d59b146105ca57806398ea5fca146105f9578063b0b22c2c14610603578063c97a413a1461068c578063ea46193e146106ff578063f2fde38b1461072a575b600080fd5b34801561012e57600080fd5b5061013761076d565b6040518082815260200191505060405180910390f35b34801561015957600080fd5b506101be600480360381019080803590602001908201803590602001908080601f0160208091040260200160405190810160405280939291908181526020018383808284378201915050505050509192919290803590602001909291905050506107b4565b005b3480156101cc57600080fd5b50610227600480360381019080803590602001908201803590602001908080601f0160208091040260200160405190810160405280939291908181526020018383808284378201915050505050509192919290505050610bc6565b6040518082815260200191505060405180910390f35b34801561024957600080fd5b5061026860048036038101908080359060200190929190505050610d6f565b005b34801561027657600080fd5b5061027f610f9d565b005b34801561028d57600080fd5b506102c2600480360381019080803573ffffffffffffffffffffffffffffffffffffffff16906020019092919050505061104c565b604051808215151515815260200191505060405180910390f35b3480156102e857600080fd5b506102f1611069565b604051808215151515815260200191505060405180910390f35b34801561031757600080fd5b50610372600480360381019080803590602001908201803590602001908080601f0160208091040260200160405190810160405280939291908181526020018383808284378201915050505050509192919290505050611080565b604051808260ff1660ff16815260200191505060405180910390f35b34801561039a57600080fd5b506103a36111bb565b005b3480156103b157600080fd5b506103ba6111c6565b005b3480156103c857600080fd5b506103fd600480360381019080803573ffffffffffffffffffffffffffffffffffffffff16906020019092919050505061129a565b005b34801561040b57600080fd5b506104146112ba565b005b34801561042257600080fd5b50610444600480360381019080803560ff16906020019092919050505061136a565b604051808373ffffffffffffffffffffffffffffffffffffffff1673ffffffffffffffffffffffffffffffffffffffff16815260200180602001828103825283818151815260200191508051906020019080838360005b838110156104b657808201518184015260208101905061049b565b50505050905090810190601f1680156104e35780820380516001836020036101000a031916815260200191505b50935050505060405180910390f35b3480156104fe57600080fd5b50610507611446565b604051808273ffffffffffffffffffffffffffffffffffffffff1673ffffffffffffffffffffffffffffffffffffffff16815260200191505060405180910390f35b34801561055557600080fd5b506105b0600480360381019080803590602001908201803590602001908080601f0160208091040260200160405190810160405280939291908181526020018383808284378201915050505050509192919290505050611470565b604051808215151515815260200191505060405180910390f35b3480156105d657600080fd5b506105df61149e565b604051808215151515815260200191505060405180910390f35b6106016114f6565b005b34801561060f57600080fd5b5061068a600480360381019080803590602001908201803590602001908080601f0160208091040260200160405190810160405280939291908181526020018383808284378201915050505050509192919290803573ffffffffffffffffffffffffffffffffffffffff169060200190929190505050611647565b005b34801561069857600080fd5b506106fd600480360381019080803590602001908201803590602001908080601f016020809104026020016040519081016040528093929190818152602001838380828437820191505050505050919291929080359060200190929190505050611845565b005b34801561070b57600080fd5b50610714611c0a565b6040518082815260200191505060405180910390f35b34801561073657600080fd5b5061076b600480360381019080803573ffffffffffffffffffffffffffffffffffffffff169060200190929190505050611c51565b005b6000600660003373ffffffffffffffffffffffffffffffffffffffff1673ffffffffffffffffffffffffffffffffffffffff16815260200190815260200160002054905090565b6000806107c084611080565b91507f7d060624b43a868f7a6cc1fda84bfa2033275077f6e1db973cf9f0538d5fdfab33838542604051808573ffffffffffffffffffffffffffffffffffffffff1673ffffffffffffffffffffffffffffffffffffffff1681526020018460ff1660ff16815260200183815260200182815260200194505050505060405180910390a1600073ffffffffffffffffffffffffffffffffffffffff16600360008460ff1660ff16815260200190815260200160002060000160009054906101000a900473ffffffffffffffffffffffffffffffffffffffff1673ffffffffffffffffffffffffffffffffffffffff16141515156108bb57600080fd5b600360008360ff1660ff16815260200190815260200160002060000160009054906101000a900473ffffffffffffffffffffffffffffffffffffffff169050600115158173ffffffffffffffffffffffffffffffffffffffff166323b872dd3330876040518463ffffffff167c0100000000000000000000000000000000000000000000000000000000028152600401808473ffffffffffffffffffffffffffffffffffffffff1673ffffffffffffffffffffffffffffffffffffffff1681526020018373ffffffffffffffffffffffffffffffffffffffff1673ffffffffffffffffffffffffffffffffffffffff1681526020018281526020019350505050602060405180830381600087803b1580156109d557600080fd5b505af11580156109e9573d6000803e3d6000fd5b505050506040513d60208110156109ff57600080fd5b81019080805190602001909291905050501515141515610a1e57600080fd5b600560003373ffffffffffffffffffffffffffffffffffffffff1673ffffffffffffffffffffffffffffffffffffffff16815260200190815260200160002060008360ff1660ff1681526020019081526020016000205483600560003373ffffffffffffffffffffffffffffffffffffffff1673ffffffffffffffffffffffffffffffffffffffff16815260200190815260200160002060008560ff1660ff168152602001908152602001600020540110151515610adb57600080fd5b82600560003373ffffffffffffffffffffffffffffffffffffffff1673ffffffffffffffffffffffffffffffffffffffff16815260200190815260200160002060008460ff1660ff168152602001908152602001600020600082825401925050819055507f7d060624b43a868f7a6cc1fda84bfa2033275077f6e1db973cf9f0538d5fdfab33838542604051808573ffffffffffffffffffffffffffffffffffffffff1673ffffffffffffffffffffffffffffffffffffffff1681526020018460ff1660ff16815260200183815260200182815260200194505050505060405180910390a150505050565b600080610bd283611080565b90507f68f1c1d268f55411a415fc6fce3ac4f0796c27e0fa551b77c7ef37aee3c4ec24838233600560003373ffffffffffffffffffffffffffffffffffffffff1673ffffffffffffffffffffffffffffffffffffffff16815260200190815260200160002060008660ff1660ff1681526020019081526020016000205460405180806020018560ff1660ff1681526020018473ffffffffffffffffffffffffffffffffffffffff1673ffffffffffffffffffffffffffffffffffffffff168152602001838152602001828103825286818151815260200191508051906020019080838360005b83811015610cd3578082015181840152602081019050610cb8565b50505050905090810190601f168015610d005780820380516001836020036101000a031916815260200191505b509550505050505060405180910390a1600560003373ffffffffffffffffffffffffffffffffffffffff1673ffffffffffffffffffffffffffffffffffffffff16815260200190815260200160002060008260ff1660ff16815260200190815260200160002054915050919050565b600260009054906101000a900460ff16151515610d8b57600080fd5b6000600160008082825401925050819055506000549050600082600660003373ffffffffffffffffffffffffffffffffffffffff1673ffffffffffffffffffffffffffffffffffffffff168152602001908152602001600020540310151515610df357600080fd5b600660003373ffffffffffffffffffffffffffffffffffffffff1673ffffffffffffffffffffffffffffffffffffffff1681526020019081526020016000205482600660003373ffffffffffffffffffffffffffffffffffffffff1673ffffffffffffffffffffffffffffffffffffffff168152602001908152602001600020540311151515610e8257600080fd5b81600660003373ffffffffffffffffffffffffffffffffffffffff1673ffffffffffffffffffffffffffffffffffffffff168152602001908152602001600020600082825403925050819055503373ffffffffffffffffffffffffffffffffffffffff166108fc839081150290604051600060405180830381858888f19350505050158015610f15573d6000803e3d6000fd5b507fe257019382c9e1c2cfc685b71b0a530b9fc102f60b90924db7d363546bd60ffa338342604051808473ffffffffffffffffffffffffffffffffffffffff1673ffffffffffffffffffffffffffffffffffffffff168152602001838152602001828152602001935050505060405180910390a160005481141515610f9957600080fd5b5050565b610fa63361104c565b1515610fb157600080fd5b600260009054906101000a900460ff161515610fcc57600080fd5b6000600260006101000a81548160ff0219169083151502179055507f5db9ee0a495bf2e6ff9c91a7834c1ba4fdd244a5e8aa4e537bd38aeae4b073aa33604051808273ffffffffffffffffffffffffffffffffffffffff1673ffffffffffffffffffffffffffffffffffffffff16815260200191505060405180910390a1565b6000611062826001611c7090919063ffffffff16565b9050919050565b6000600260009054906101000a900460ff16905090565b600080600190505b600460009054906101000a900460ff1660ff168160ff161115156111b057826040518082805190602001908083835b6020831015156110dc57805182526020820191506020810190506020830392506110b7565b6001836020036101000a038019825116818451168082178552505050505050905001915050604051809103902060001916600360008360ff1660ff16815260200190815260200160002060010160405180828054600181600116156101000203166002900480156111845780601f10611162576101008083540402835291820191611184565b820191906000526020600020905b815481529060010190602001808311611170575b505091505060405180910390206000191614156111a3578091506111b5565b8080600101915050611088565b600091505b50919050565b6111c433611d04565b565b6111ce61149e565b15156111d957600080fd5b600073ffffffffffffffffffffffffffffffffffffffff16600260019054906101000a900473ffffffffffffffffffffffffffffffffffffffff1673ffffffffffffffffffffffffffffffffffffffff167f8be0079c531659141344cd1fd0a4f28419497f9722a3daafe3b4186f6b6457e060405160405180910390a36000600260016101000a81548173ffffffffffffffffffffffffffffffffffffffff021916908373ffffffffffffffffffffffffffffffffffffffff160217905550565b6112a33361104c565b15156112ae57600080fd5b6112b781611d5e565b50565b6112c33361104c565b15156112ce57600080fd5b600260009054906101000a900460ff161515156112ea57600080fd5b6001600260006101000a81548160ff0219169083151502179055507f62e78cea01bee320cd4e420270b5ea74000d11b0c9f74754ebdbfc544b05a25833604051808273ffffffffffffffffffffffffffffffffffffffff1673ffffffffffffffffffffffffffffffffffffffff16815260200191505060405180910390a1565b60036020528060005260406000206000915090508060000160009054906101000a900473ffffffffffffffffffffffffffffffffffffffff1690806001018054600181600116156101000203166002900480601f01602080910402602001604051908101604052809291908181526020018280546001816001161561010002031660029004801561143c5780601f106114115761010080835404028352916020019161143c565b820191906000526020600020905b81548152906001019060200180831161141f57829003601f168201915b5050505050905082565b6000600260019054906101000a900473ffffffffffffffffffffffffffffffffffffffff16905090565b60008061147c83611080565b905060008160ff1614156114935760009150611498565b600191505b50919050565b6000600260019054906101000a900473ffffffffffffffffffffffffffffffffffffffff1673ffffffffffffffffffffffffffffffffffffffff163373ffffffffffffffffffffffffffffffffffffffff1614905090565b600660003373ffffffffffffffffffffffffffffffffffffffff1673ffffffffffffffffffffffffffffffffffffffff1681526020019081526020016000205434600660003373ffffffffffffffffffffffffffffffffffffffff1673ffffffffffffffffffffffffffffffffffffffff16815260200190815260200160002054011015151561158557600080fd5b34600660003373ffffffffffffffffffffffffffffffffffffffff1673ffffffffffffffffffffffffffffffffffffffff168152602001908152602001600020600082825401925050819055507fdeb63ff849b8fee6a58078f926e42644e6a45bb089ad6de34ffe93702edf6d69333442604051808473ffffffffffffffffffffffffffffffffffffffff1673ffffffffffffffffffffffffffffffffffffffff168152602001838152602001828152602001935050505060405180910390a1565b61164f61149e565b151561165a57600080fd5b61166382611470565b15151561166f57600080fd5b600460009054906101000a900460ff1660ff166001600460009054906101000a900460ff160160ff161115156116a457600080fd5b6004600081819054906101000a900460ff168092919060010191906101000a81548160ff021916908360ff160217905550508160036000600460009054906101000a900460ff1660ff1660ff1681526020019081526020016000206001019080519060200190611715929190612013565b508060036000600460009054906101000a900460ff1660ff1660ff16815260200190815260200160002060000160006101000a81548173ffffffffffffffffffffffffffffffffffffffff021916908373ffffffffffffffffffffffffffffffffffffffff1602179055507fabe3435c2fddc870ece1cba10ffe1242d08c12ca15ea6c965bdda9217da39167600460009054906101000a900460ff168342604051808460ff1660ff16815260200180602001838152602001828103825284818151815260200191508051906020019080838360005b838110156118055780820151818401526020810190506117ea565b50505050905090810190601f1680156118325780820380516001836020036101000a031916815260200191505b5094505050505060405180910390a15050565b60008061185184611080565b9150600073ffffffffffffffffffffffffffffffffffffffff16600360008460ff1660ff16815260200190815260200160002060000160009054906101000a900473ffffffffffffffffffffffffffffffffffffffff1673ffffffffffffffffffffffffffffffffffffffff16141515156118cb57600080fd5b600360008360ff1660ff16815260200190815260200160002060000160009054906101000a900473ffffffffffffffffffffffffffffffffffffffff169050600083600560003373ffffffffffffffffffffffffffffffffffffffff1673ffffffffffffffffffffffffffffffffffffffff16815260200190815260200160002060008560ff1660ff16815260200190815260200160002054031015151561197257600080fd5b600560003373ffffffffffffffffffffffffffffffffffffffff1673ffffffffffffffffffffffffffffffffffffffff16815260200190815260200160002060008360ff1660ff1681526020019081526020016000205483600560003373ffffffffffffffffffffffffffffffffffffffff1673ffffffffffffffffffffffffffffffffffffffff16815260200190815260200160002060008560ff1660ff168152602001908152602001600020540311151515611a2f57600080fd5b82600560003373ffffffffffffffffffffffffffffffffffffffff1673ffffffffffffffffffffffffffffffffffffffff16815260200190815260200160002060008460ff1660ff16815260200190815260200160002060008282540392505081905550600115158173ffffffffffffffffffffffffffffffffffffffff1663a9059cbb33866040518363ffffffff167c0100000000000000000000000000000000000000000000000000000000028152600401808373ffffffffffffffffffffffffffffffffffffffff1673ffffffffffffffffffffffffffffffffffffffff16815260200182815260200192505050602060405180830381600087803b158015611b3a57600080fd5b505af1158015611b4e573d6000803e3d6000fd5b505050506040513d6020811015611b6457600080fd5b81019080805190602001909291905050501515141515611b8357600080fd5b7f323a3d71f5ff1057c4f8fb797376ade0e80015f95d9f8e6a4465ebb7e0acf44033838542604051808573ffffffffffffffffffffffffffffffffffffffff1673ffffffffffffffffffffffffffffffffffffffff1681526020018460ff1660ff16815260200183815260200182815260200194505050505060405180910390a150505050565b6000600660003373ffffffffffffffffffffffffffffffffffffffff1673ffffffffffffffffffffffffffffffffffffffff16815260200190815260200160002054905090565b611c5961149e565b1515611c6457600080fd5b611c6d81611db8565b50565b60008073ffffffffffffffffffffffffffffffffffffffff168273ffffffffffffffffffffffffffffffffffffffff1614151515611cad57600080fd5b8260000160008373ffffffffffffffffffffffffffffffffffffffff1673ffffffffffffffffffffffffffffffffffffffff16815260200190815260200160002060009054906101000a900460ff16905092915050565b611d18816001611eb490919063ffffffff16565b8073ffffffffffffffffffffffffffffffffffffffff167fcd265ebaf09df2871cc7bd4133404a235ba12eff2041bb89d9c714a2621c7c7e60405160405180910390a250565b611d72816001611f6390919063ffffffff16565b8073ffffffffffffffffffffffffffffffffffffffff167f6719d08c1888103bea251a4ed56406bd0c3e69723c8a1686e017e7bbe159b6f860405160405180910390a250565b600073ffffffffffffffffffffffffffffffffffffffff168173ffffffffffffffffffffffffffffffffffffffff1614151515611df457600080fd5b8073ffffffffffffffffffffffffffffffffffffffff16600260019054906101000a900473ffffffffffffffffffffffffffffffffffffffff1673ffffffffffffffffffffffffffffffffffffffff167f8be0079c531659141344cd1fd0a4f28419497f9722a3daafe3b4186f6b6457e060405160405180910390a380600260016101000a81548173ffffffffffffffffffffffffffffffffffffffff021916908373ffffffffffffffffffffffffffffffffffffffff16021790555050565b600073ffffffffffffffffffffffffffffffffffffffff168173ffffffffffffffffffffffffffffffffffffffff1614151515611ef057600080fd5b611efa8282611c70565b1515611f0557600080fd5b60008260000160008373ffffffffffffffffffffffffffffffffffffffff1673ffffffffffffffffffffffffffffffffffffffff16815260200190815260200160002060006101000a81548160ff0219169083151502179055505050565b600073ffffffffffffffffffffffffffffffffffffffff168173ffffffffffffffffffffffffffffffffffffffff1614151515611f9f57600080fd5b611fa98282611c70565b151515611fb557600080fd5b60018260000160008373ffffffffffffffffffffffffffffffffffffffff1673ffffffffffffffffffffffffffffffffffffffff16815260200190815260200160002060006101000a81548160ff0219169083151502179055505050565b828054600181600116156101000203166002900490600052602060002090601f016020900481019282601f1061205457805160ff1916838001178555612082565b82800160010185558215612082579182015b82811115612081578251825591602001919060010190612066565b5b50905061208f9190612093565b5090565b6120b591905b808211156120b1576000816000905550600101612099565b5090565b905600a165627a7a7230582055f460b5591a4378ed38d7026e0766e9fbf5e7c97136fe84e9081acf6afc0c050029",
  "source": "pragma solidity ^0.4.21;\n\n//import \"./IERC20.sol\";\nimport \"./MyERC20Token.sol\";\nimport \"./ReentrancyGuard.sol\";\nimport \"./Pausable.sol\";\n\ncontract MyTokenManage is ReentrancyGuard,Pausable,Ownable {\n    struct Token {\n        address tokenContract; \n        string symbolName;\n    }\n    \n    //Maxinum 256 tokens\n    mapping (uint8 => Token) public tokens;\n    uint8 tokenIndex;\n    \n    //Token balance\n    mapping (address => mapping(uint8 => uint256)) tokenBalances;\n    \n    //Ether balance\n    mapping(address => uint256) etherBalances;\n    \n    //Events to log account activities\n    event log_DepositToken(address _from,uint8 _symbolIndex,uint256 _amount,uint256 _timestamp);\n    event log_WithDrawToken(address _to, uint8 _symbolIndex, uint256 _amount, uint256 _timestamp);\n    event log_DepositEther(address _from, uint256 _amount, uint256 _timestamp);\n    event log_WithDrawEther(address _to,uint256 _amount, uint256 _timestamp);\n    event log_NewToken(uint8 _symbolIndex, string _tokenName, uint256 _timestamp);\n    event log_TokenBalance(string _symbolName,uint8 _symbolIndex, address _from, uint256 _amount);\n    \n    //Deposit ether \n    function depositEther() public payable{\n        require(etherBalances[msg.sender] + msg.value >= etherBalances[msg.sender]);  //overflow checking\n        etherBalances[msg.sender] += msg.value;\n        emit log_DepositEther(msg.sender,msg.value, now);\n    }\n    \n    //withdraw ether\n    function withdrawEther(uint amountInWei) whenNotPaused nonReentrant public{\n        require(etherBalances[msg.sender] - amountInWei >=0);\n        //overflow checking\n        require(etherBalances[msg.sender] - amountInWei <=etherBalances[msg.sender]);\n        etherBalances[msg.sender] -=amountInWei;\n        msg.sender.transfer(amountInWei);\n        emit log_WithDrawEther(msg.sender,amountInWei, now);  \n    }\n    \n    //Get Ether balance\n    function getEtherBalance() view public returns(uint256){\n        return etherBalances[msg.sender];\n    }\n\n    function getEthBalanceInWei() view public returns (uint){\n        return etherBalances[msg.sender];\n    }\n    \n    //Enable new _token\n    function addToken(string symbolName, address erc20Token) public onlyOwner {\n        require(!hasToken(symbolName)); //make sure this token not exist yet\n        require(tokenIndex +1 > tokenIndex);   //Ovweflow checking\n        tokenIndex++;\n        \n        tokens[tokenIndex].symbolName = symbolName;\n        tokens[tokenIndex].tokenContract = erc20Token;\n        emit log_NewToken(tokenIndex,symbolName,now);\n    }\n    \n    function hasToken(string symbolName) view public returns(bool){\n        uint8 index = getSymbolIndex(symbolName);\n        if (index ==0) {\n            return false;\n        }\n        return true;\n    }\n    \n    function getSymbolIndex(string symbolName) public view returns(uint8){\n        for(uint8 i=1;i<=tokenIndex;i++){\n            if (keccak256(tokens[i].symbolName) == keccak256(symbolName)){\n                return i;\n            }\n        }\n        return 0;\n    }\n    \n    //Deposit Token\n    function depositToken(string symbolName, uint256 amount) public{\n        uint8 symbolIndex = getSymbolIndex(symbolName);\n        emit log_DepositToken(msg.sender,symbolIndex,amount,now);\n        require(tokens[symbolIndex].tokenContract != address(0));  //make sure the token is added already\n        IERC20 token = IERC20(tokens[symbolIndex].tokenContract);\n        //Traner token to this contract\n        require(token.transferFrom(msg.sender, address(this),amount) == true);\n        require(tokenBalances[msg.sender][symbolIndex] + amount >=  tokenBalances[msg.sender][symbolIndex]);  //overflow checking\n        tokenBalances[msg.sender][symbolIndex] +=amount;\n        emit log_DepositToken(msg.sender,symbolIndex,amount,now);\n    }\n    \n    //withdraw token\n    function withdrawToken(string symbolName,uint256 amount) public {\n        uint8 symbolIndex = getSymbolIndex(symbolName);\n        require(tokens[symbolIndex].tokenContract !=address(0));\n        IERC20 token = IERC20(tokens[symbolIndex].tokenContract);\n        \n        require(tokenBalances[msg.sender][symbolIndex] - amount >=0);\n        require(tokenBalances[msg.sender][symbolIndex] - amount <= tokenBalances[msg.sender][symbolIndex]);\n        \n        tokenBalances[msg.sender][symbolIndex] -= amount;\n        require(token.transfer(msg.sender,amount) == true);\n        emit log_WithDrawToken(msg.sender, symbolIndex,amount,now);\n    }\n    \n    function getBalance(string symbolName) view public returns (uint) {\n        uint8 symbolNameIndex = getSymbolIndex(symbolName);\n        emit log_TokenBalance(symbolName,symbolNameIndex, msg.sender,tokenBalances[msg.sender][symbolNameIndex]);\n        return tokenBalances[msg.sender][symbolNameIndex];\n    }\n    \n}",
  "sourcePath": "D:\\Blochchain\\udemy\\MyERC20Token\\contracts\\MyTokenManage.sol",
  "compiler": {
    "name": "solc",
    "version": "0.4.24+commit.e67f0147.Emscripten.clang"
  },
  "schemaVersion": "2.0.1",
  "updatedAt": "2018-11-11T02:29:10.545Z"
}